:100000000C9458000C9480000C9480000C94800098
:100010000C9480000C9480000C9480000C94800060
:100020000C9480000C9480000C9480000C94800050
:100030000C9480000C9480000C9480000C94800040
:100040000C9495030C9480000C9405040C94DF032D
:100050000C9480000C9480000C9480000C94800020
:100060000C9437040C948000000000002500280048
:100070002B00040404040404040402020202020229
:10008000030303030303010204081020408001025C
:1000900004081020010204081020000000080002DB
:1000A00001000003040700000000000000006505D7
:1000B00011241FBECFEFD8E0DEBFCDBF11E0A0E01E
:1000C000B1E0ECE1FFE002C005900D92AC34B10765
:1000D000D9F722E0ACE4B1E001C01D92A83BB20721
:1000E000E1F710E0C8E5D0E004C02197FE010E94CE
:1000F0008107C735D107C9F70E949E050C948C076C
:100100000C940000282F30910E02313208F04AC0C2
:100110008091EA018111FCCF90910D0242E0409361
:10012000EA012093E9012FEF2093E8011092E70103
:100130003093E601EDEEF1E0A6ECB1E020E03217FD
:1001400021F041914D932F5FFACF1092C50120917C
:10015000C501990F922B9093C5019091C4019130E4
:1001600061F41092C4019091C5019093BB009091ED
:10017000BC0093FDF8CF95EC01C095EE9093BC00C8
:100180009091EA019230E1F39091E8019F3F79F07C
:100190008091E801803241F08091E801803331F0B4
:1001A00084E005C081E003C082E001C083E01092DA
:1001B000EC0110920E021092EB01089590E0FC0108
:1001C000E656FF4F2491FC01EA57FF4F3491FC01A2
:1001D000EE58FF4FE491EE23B1F1222339F12330A1
:1001E00091F038F42130A9F0223001F584B58F7DEB
:1001F00012C0273091F02830A1F02430B9F480915A
:1002000080008F7D03C0809180008F778093800075
:100210000DC084B58F7784BD09C08091B0008F7701
:1002200003C08091B0008F7D8093B000F0E0EE0FAE
:10023000FF1FE859FF4FA591B4918FB7F894EC9147
:10024000E32BEC938FBF08953FB7F8948091C001E2
:100250009091C101A091C201B091C30126B5A89BA4
:1002600005C02F3F19F00196A11DB11D3FBFBA2F48
:10027000A92F982F8827820F911DA11DB11DBC01A8
:10028000CD0142E0660F771F881F991F4A95D1F76D
:10029000089508950895CF92DF92EF92FF920F9301
:1002A0001F93CF93DF936C017A018B01C0E0D0E004
:1002B000CE15DF0581F0D8016D918D01D601ED914C
:1002C000FC910190F081E02DC6010995892B11F078
:1002D0002196EECF7E01C701DF91CF911F910F9143
:1002E000FF90EF90DF90CF900895FC01538D448DE7
:1002F000252F30E0842F90E0821B930B541710F0D1
:10030000CF96089501970895FC01918D828D9817DD
:1003100061F0828DDF01A80FB11D5D968C91928DE9
:100320009F5F9F73928F90E008958FEF9FEF0895E6
:10033000FC01918D828D981731F0828DE80FF11DAF
:10034000858D90E008958FEF9FEF0895FC01918DCA
:10035000228D892F90E0805C9F4F821B91098F73C3
:10036000992708958FE092E00E94A60121E0892B51
:1003700009F420E0822F0895FC01848DDF01A80F8D
:10038000B11DA35ABF4F2C91848D90E001968F73BD
:100390009927848FA689B7892C93A089B1898C91DC
:1003A000837080648C93938D848D981306C002882B
:1003B000F389E02D80818F7D80830895EF92FF92F5
:1003C0000F931F93CF93DF93EC0181E0888F9B8D78
:1003D0008C8D981305C0E889F989808185FD26C038
:1003E000F62E0B8D10E00F5F1F4F0F731127E02EBD
:1003F0008C8DE8120CC00FB607FCFACFE889F9899A
:10040000808185FFF5CFCE010E94BC01F1CF8B8D9D
:10041000FE01E80FF11DE35AFF4FF0829FB7F894F9
:100420000B8FEA89FB89808180620AC09FB7F894AC
:10043000EE89FF896083E889F9898081837080640F
:1004400080839FBF81E090E0DF91CF911F910F915A
:10045000FF90EF900895CF93DF93EC01888D882370
:10046000C9F0EA89FB89808185FD05C0A889B98921
:100470008C9186FD0FC00FB607FCF5CF808185FFFC
:10048000F2CFA889B9898C9185FFEDCFCE010E946A
:10049000BC01E7CFDF91CF91089580E090E0892BF8
:1004A00029F00E94B20181110C940000089585ED9D
:1004B0008093BC008091BC0084FDFCCF1092EA01C7
:1004C000089540916C01262F30E0240F311D213218
:1004D0003105DCF42091EA012430C9F4FC0180E00C
:1004E00090E0861758F430916C012191DC01A45BF7
:1004F000BE4FA30FB11D2C930196F3CF80916C01D9
:10050000680F60936C0180E0089581E0089582E0B7
:1005100008950895E091940180919301E81730F4D3
:10052000F0E0EB56FE4F808190E008958FEF9FEF53
:1005300008959091940180919301981750F4E92FB8
:10054000F0E0EB56FE4F208130E09F5F90939401E6
:1005500002C02FEF3FEFC90108958091930190E011
:1005600020919401821B91090895CF92DF92EF921E
:10057000FF920F931F93CF93DF937C01CB018A01EE
:100580002091EB01222389F0EB016B01C40ED51EF3
:10059000CC15DD0569F06991D701ED91FC910190D1
:1005A000F081E02DC7010995F3CF642F0E9461020D
:1005B000C801DF91CF911F910F91FF90EF90DF90D5
:1005C000CF900895CF93DF931F92CDB7DEB76983A5
:1005D0002091EB012223D1F020910E02203240F035
:1005E00021E030E0FC013383228380E090E015C0FD
:1005F0008091EC01E82FF0E0E351FE4F9981908368
:100600008F5F8093EC0180930E0205C061E0CE0104
:1006100001960E94610281E090E00F90DF91CF91FE
:100620000895089580E090E00895009769F0FC0136
:1006300001900020E9F73197AF01481B590BBC012D
:100640008FE092E00C944B0180E090E008958F924F
:100650009F92AF92BF920F931F93CF93DF93CDB72B
:10066000DEB7A1970FB6F894DEBF0FBECDBF19A2BB
:10067000423008F44AE08E010F5D1F4F842E912C0A
:10068000A12CB12CA50194010E945F07E62FB901AE
:10069000CA0101501109EA3014F4E05D01C0E95CBF
:1006A000D801EC93232B242B252B61F7C8010E9442
:1006B0001503A1960FB6F894DEBF0FBECDBFDF9134
:1006C000CF911F910F91BF90AF909F908F90089501
:1006D000CF92DF92EF92FF92CF93DF936B017C0179
:1006E0006DE28FE092E00E94DE01EC016627772741
:1006F000CB016C197D098E099F094AE00E942703EE
:100700008C0F9D1FDF91CF91FF90EF90DF90CF90E6
:100710000895BC01990F880B990B97FD0C94680301
:100720004AE00C9427030E9487071F920F920FB68E
:100730000F9211242F933F938F939F93AF93BF9367
:100740008091BC019091BD01A091BE01B091BF010B
:100750003091BB0123E0230F2D3720F40196A11D1A
:10076000B11D05C026E8230F0296A11DB11D2093DF
:10077000BB018093BC019093BD01A093BE01B093D7
:10078000BF018091C0019091C101A091C201B091BF
:10079000C3010196A11DB11D8093C0019093C101B9
:1007A000A093C201B093C301BF91AF919F918F916C
:1007B0003F912F910F900FBE0F901F9018951F9291
:1007C0000F920FB60F9211242F933F934F935F9385
:1007D0006F937F938F939F93AF93BF93EF93FF9309
:1007E0008FE092E00E94BC01FF91EF91BF91AF9129
:1007F0009F918F917F916F915F914F913F912F9139
:100800000F900FBE0F901F9018951F920F920FB66A
:100810000F9211242F938F939F93EF93FF93E09167
:100820001F02F09120028081E0912502F0912602C2
:1008300082FD12C09081809128028F5F8F7320917A
:100840002902821751F0E0912802F0E0E15FFD4FAC
:10085000958F8093280201C08081FF91EF919F9135
:100860008F912F910F900FBE0F901F9018951F9290
:100870000F920FB60F9211242F933F934F935F93D4
:100880006F937F938F939F93AF93BF93EF93FF9358
:100890008091B900887F803609F49CC068F5883261
:1008A00009F45BC090F4803109F454C038F4882313
:1008B00009F4F6C0883009F44DC0F6C0883109F457
:1008C0004CC0803209F45DC0EFC0803409F468C0C8
:1008D00048F4803309F455C0883309F0E5C08093AB
:1008E000E801D8C0803509F44FC0883509F45DC0EF
:1008F000883409F0D9C0D6C0883909F4C7C0A8F433
:10090000883709F467C038F4883609F463C0803743
:1009100009F460C0C9C0883809F4B8C0803909F446
:100920005FC0803809F0C0C05BC0803B09F486C05E
:1009300038F4803A09F466C0883A09F47FC0B4C03C
:10094000803C09F4A7C0883C09F4A4C0883B09F4A2
:100950008AC0AAC08091C50110C09091E701809122
:10096000E601981770F5E091E70181E08E0F809322
:10097000E701F0E0EA53FE4F80818093BB0085ECF5
:1009800086C08093E8018EC0E091E70181E08E0F80
:100990008093E7018091BB00F0E0EA53FE4F808333
:1009A0009091E7018091E6016EC0E091E70181E05E
:1009B0008E0F8093E7018091BB00F0E0EA53FE4F79
:1009C00080838091E90181116DC081E08093C40131
:1009D00084EA61C083E08093EA0110928E01CFCF58
:1009E00080918E01803208F051C0E0918E0181E04B
:1009F0008E0F80938E018091BB00F0E0E259FE4F94
:100A00008083BDCF85EC8093BC001092EA01809179
:100A10008E01803230F4E0918E01F0E0E259FE4F19
:100A2000108260918E0170E0E0918F01F091900151
:100A30008EE691E0099510928E0136C084E0809395
:100A4000EA0110926D0110926C01E0919101F09118
:100A50009201099580916C01811105C081E080931C
:100A60006C0110924C01E0916D0181E08E0F80933A
:100A70006D01F0E0E45BFE4F80818093BB009091BC
:100A80006D0180916C01981708F479CF85E8809307
:100A9000BC000AC085EC8093BC001092EA0104C03F
:100AA0001092E8010E945702FF91EF91BF91AF9120
:100AB0009F918F917F916F915F914F913F912F9176
:100AC0000F900FBE0F901F901895EFE0F2E0138289
:100AD000128288EE93E0A0E0B0E084839583A68341
:100AE000B78324E031E03183208325EC30E0358783
:100AF000248724EC30E03787268720EC30E0318BE8
:100B0000208B21EC30E0338B228B22EC30E0358BD4
:100B1000248B26EC30E0378B268B118E128E138EB1
:100B2000148EECEAF2E01382128284839583A6830A
:100B3000B78386E191E0918380830895789484B5AA
:100B4000826084BD84B5816084BD85B5826085BDC9
:100B500085B5816085BD80916E00816080936E0057
:100B60001092810080918100826080938100809149
:100B700081008160809381008091800081608093FA
:100B800080008091B10084608093B1008091B000BA
:100B900081608093B00080917A00846080937A00B5
:100BA00080917A00826080937A0080917A008160DF
:100BB00080937A0080917A00806880937A00109206
:100BC000C10010929401109293011092EC011092C6
:100BD0000E021092EA01C1E0C093E9011092C40133
:100BE00082E10E94DE0083E10E94DE008091B90074
:100BF0008E7F8093B9008091B9008D7F8093B9007A
:100C000088E48093B80085E48093BC0089E491E097
:100C100090939201809391018AE491E090939001E6
:100C200080938F01C093EB0188E680930D021092B0
:100C3000EC0110920E026BE68CEA92E00E94E20256
:100C400060E08CEA92E00E94E20281E00E94820071
:100C5000E0911F02F091200282E08083E0911B026C
:100C6000F0911C021082E0911D02F0911E028FECA7
:100C7000808310922702E0912302F091240286E003
:100C80008083E0912102F091220280818061808343
:100C9000E0912102F0912202808188608083E091BE
:100CA0002102F0912202808180688083E0912102FC
:100CB000F091220280818F7D8083DDE095EE392ED8
:100CC00025EC222EC093EB0128E620930D02109212
:100CD000EC0110920E026BE38CEA92E00E94E202B9
:100CE00080E00E9482008091EA018111FCCFC093D4
:100CF000EA01C093E9018FEF8093E8011092E701C8
:100D0000D093E601C093C5018091C501806D8093A9
:100D1000C5018091C401813069F41092C4018091B1
:100D2000C5018093BB008091BC0083FDF8CF209269
:100D3000BC0002C03092BC008091EA018130E1F336
:100D40008091E7018E3018F49091E70101C09EE098
:100D5000A6ECB1E0E5E9F1E080E0891721F02D9102
:100D600021938F5FFACF10929401809393018CEAC4
:100D700092E00E9499028CEA92E00E9499028CEA29
:100D800092E00E949902B82E8CEA92E00E949902A9
:100D90001B2D00E0802B912B9093BA018093B90119
:100DA0008CEA92E00E949902B82E8CEA92E00E94AE
:100DB0009902FB2CE12C8E299F299093B8018093F6
:100DC000B7018CEA92E00E9499028CEA92E00E94BC
:100DD00099028CEA92E00E9499028CEA92E00E94C9
:100DE00099028CEA92E00E9499028CEA92E00E94B9
:100DF00099028CEA92E00E949902B82E8CEA92E065
:100E00000E949902DB2CC12C8C299D299093B6015C
:100E10008093B50184E291E00E9415038091B901AD
:100E20009091BA010E94890380E391E00E9415032A
:100E30008091B7019091B8010E9489038CE391E001
:100E40000E9415036091B5017091B601072E000C48
:100E5000880B990B97FF03C00E94680303C04AE008
:100E60000E94270389E491E00E9415030E94240157
:100E70002B013C0184E6882E912CA12CB12C0E94E0
:100E80002401DC01CB0184199509A609B709883E24
:100E90009340A105B10598F321E0821A9108A108B9
:100EA000B10888EE480E83E0581E611C711C811445
:100EB0009104A104B10419F70E944D0203CFA1E2ED
:100EC0001A2EAA1BBB1BFD010DC0AA1FBB1FEE1FC4
:100ED000FF1FA217B307E407F50720F0A21BB30B0F
:100EE000E40BF50B661F771F881F991F1A9469F78B
:100EF00060957095809590959B01AC01BD01CF01E7
:100F00000895EE0FFF1F0590F491E02D099481E004
:0C0F100090E0F8940C948C07F894FFCF4C
:100F1C0000000000DE014B0175012B02A6018401CB
:100F2C00980100000000E202B50212038902AD0232
:100F3C0099028A02207C7C2041636359203D200069
:100F4C00207C7C204163635A203D2000207C7C2047
:0C0F5C004779726F5A203D20000D0A00FA
:107E0000112484B714BE81FFF0D085E080938100F7
:107E100082E08093C00088E18093C10086E0809377
:107E2000C20080E18093C4008EE0C9D0259A86E02C
:107E300020E33CEF91E0309385002093840096BBD3
:107E4000B09BFECF1D9AA8958150A9F7CC24DD24C4
:107E500088248394B5E0AB2EA1E19A2EF3E0BF2EE7
:107E6000A2D0813461F49FD0082FAFD0023811F036
:107E7000013811F484E001C083E08DD089C08234E0
:107E800011F484E103C0853419F485E0A6D080C0E4
:107E9000853579F488D0E82EFF2485D0082F10E0AE
:107EA000102F00270E291F29000F111F8ED06801E7
:107EB0006FC0863521F484E090D080E0DECF843638
:107EC00009F040C070D06FD0082F6DD080E0C81688
:107ED00080E7D80618F4F601B7BEE895C0E0D1E017
:107EE00062D089930C17E1F7F0E0CF16F0E7DF06D8
:107EF00018F0F601B7BEE89568D007B600FCFDCFD4
:107F0000A601A0E0B1E02C9130E011968C91119780
:107F100090E0982F8827822B932B1296FA010C0160
:107F200087BEE89511244E5F5F4FF1E0A038BF0790
:107F300051F7F601A7BEE89507B600FCFDCF97BE46
:107F4000E89526C08437B1F42ED02DD0F82E2BD052
:107F50003CD0F601EF2C8F010F5F1F4F84911BD097
:107F6000EA94F801C1F70894C11CD11CFA94CF0C13
:107F7000D11C0EC0853739F428D08EE10CD085E9AC
:107F80000AD08FE07ACF813511F488E018D01DD067
:107F900080E101D065CF982F8091C00085FFFCCF94
:107FA0009093C60008958091C00087FFFCCF809118
:107FB000C00084FD01C0A8958091C6000895E0E648
:107FC000F0E098E1908380830895EDDF803219F02E
:107FD00088E0F5DFFFCF84E1DECF1F93182FE3DFCA
:107FE0001150E9F7F2DF1F91089580E0E8DFEE27F6
:047FF000FF270994CA
:027FFE00040479
:0400000300007E007B
:00000001FF
